:020000040000FA
:10000000680400206D02000071020000730200000D
:100010007502000077020000790200000000000075
:100020000000000000000000000000007B02000053
:100030007D020000000000007F020000CD060000ED
:1000400083020000DD030000830200008302000041
:10005000830200008302000083020000830200008C
:10006000830200008302000083020000830200007C
:10007000830200008302000083020000830200006C
:10008000830200008302000083020000830200005C
:10009000830200008302000083020000830200004C
:1000A000830200008302000083020000830200003C
:1000B000830200008302000051040000830200005C
:1000C000830200008302000083020000830200001C
:1000D000830200008302000083020000830200000C
:1000E00083020000830200008302000083020000FC
:1000F00083020000830200008302000083020000EC
:1001000083020000830200008302000083020000DB
:1001100083020000830200008302000083020000CB
:1001200083020000830200008302000083020000BB
:1001300083020000830200008302000083020000AB
:1001400000000000000000000000000000000000AF
:10015000830200008302000083020000830200008B
:10016000000000000000000000000000000000008F
:10017000000000000000000000000000000000007F
:10018000000000000000000000000000000000006F
:10019000000000000000000000000000000000005F
:1001A000000000000000000000000000000000004F
:1001B000830200008302000083020000830200002B
:1001C000830200008302000083020000830200001B
:1001D000830200008302000083020000830200000B
:1001E00083020000830200008302000083020000FB
:1001F00083020000830200008302000083020000EB
:10020000830200008302000083020000000000005F
:1002100083020000830200008302000083020000CA
:1002200083020000830200008302000083020000BA
:1002300083020000830200008302000083020000AA
:10024000830200008302000083020000830200009A
:10025000830200008302000083020000830200008A
:1002600083020000830200008302000000F00AB84D
:10027000FEE7FEE7FEE7FEE7FEE7FEE7FEE7FEE756
:10028000FEE7FEE700F002F800F042F814A696E858
:10029000000CB244B344DA4501D100F039F8BAE8B1
:1002A0000F000FA696E83000A5EB040504EB060747
:1002B000AAEB0704A7F101074FEA15154FEA34141A
:1002C000A4F10104AC4201D300F022F813F0010FB5
:1002D00018BFFB1A43F0010300F001F8DBE71847F1
:1002E000280B0000380B000070470000002300249A
:1002F00000250026103A28BF78C1FBD8520728BF36
:1003000030C148BF0B6070471FB51FBD10B510BD91
:1003100000F029F81146FFF7F7FF00F09DFB00F011
:1003200047F803B4FFF7F2FF03BC00F04FF80000FA
:1003300072B6704762B67047EFF3108072B67047BE
:1003400080F31088704730BF704702480249014A65
:10035000024B7047680000206804002068000020FD
:10036000704770477047754600F02CF8AE460500A0
:100370006946534620F00700854618B020B5FFF7C0
:10038000E4FFBDE820404FF000064FF000074FF0BB
:1003900000084FF0000BAC46ACE8C009ACE8C0095F
:1003A000ACE8C009ACE8C00921F007018D467047F0
:1003B00010B50446AFF300802046BDE81040FFF7BB
:1003C000B0BF00000048704700000020014918201D
:1003D000ABBEFEE7260002007047000080B545F284
:1003E000FC30C4F200000068C006002803D5FFE717
:1003F00000F04CF924E000F059F900F055F800F055
:10040000EAFB00220023C3F6B07300F0F7FB46F6C8
:100410000072C0F2814248F6C573C3F6A17300F0C2
:10042000EDFB00F0ABFB400840F26001C2F20001BE
:10043000086040F26401C2F2000101200860FFE799
:1004400045F21C41C4F200011020086080BD00008C
:1004500080B540F26400C2F20000006810B3FFE70C
:1004600045F2FC31C4F20201086880F00400086023
:1004700040F6FD50C0F2000000F0AAFA40F2600021
:10048000C2F20000006800F05DFA40F6F850C0F2D9
:10049000000000F09DFA45F21C41C4F20201102058
:1004A0000860FFE780BD000041F22C00C4F20300A9
:1004B000006841F24C01C4F203010968401A00EBE4
:1004C000400080007047000081B04EF27001C4F21D
:1004D0000F010091086840F000400860086840F48F
:1004E000006008604EF26002C4F20F02106820F44F
:1004F000F8601060106800F5A8601060086820F0CF
:100500007000086008680860086820F400500860FF
:10051000086840F0804008600868182262F39C5028
:100520000860FFE74EF25000C4F20F00006840067A
:10053000002801D4FFE7F5E74EF27001C4F20F0185
:10054000086820F40060086001B070474EF208614E
:10055000C4F20F01086840F020000860FFE74EF287
:100560000860C4F20F0000688006002801D4FFE78D
:10057000F5E745F22051C4F2020144F24B30C4F6D3
:100580004F40086045F22451C4F20201086840F06F
:100590001F00086045F2004CC4F2020CDCF80000B9
:1005A00040F00E00CCF8000045F22043C4F20203F4
:1005B000186820F00E00186045F21C52C4F20202C6
:1005C000106840F00E00106045F22851C4F202019C
:1005D000086820F00E000860DCF8000020F0100031
:1005E000CCF80000186820F010001860106840F087
:1005F0001000106045F21052C4F20202106840F080
:1006000010001060086820F01000086045F22C51BE
:10061000C4F2020108686FF31310086045F2044148
:10062000C4F20201086820F01000086045F2084199
:10063000C4F20201086820F01000086045F20C4185
:10064000C4F20201086840F01000086045F21C4145
:10065000C4F202011020086045F21041C4F2020108
:10066000086840F0100008604EF20011CEF2000160
:10067000086840F0804008604EF21C41CEF2000154
:100680000868A02262F317400860704741F22C010D
:10069000C4F2030143F2FF40086041F20C01C4F2CE
:1006A0000301086840F480700860704741F20C0153
:1006B000C4F20301086820F48070086041F224014C
:1006C000C4F203014FF480700860704740F260008C
:1006D000C2F20000006809280DD8FFE745F2FC319E
:1006E000C4F20201086880F002000860086820F087
:1006F0000C0008602EE040F26000C2F200000068CA
:1007000045280AD8FFE745F2FC31C4F20201086827
:10071000042262F3430008601BE040F26000C2F272
:100720000000006863280AD8FFE745F2FC31C4F2F4
:1007300002010868022262F34300086008E045F203
:10074000FC31C4F20201086820F00E000860FFE7E7
:10075000FFE7FFE7704700004EF21001CEF2000104
:10076000002008604EF21403CEF2000340F6FF02B0
:10077000C0F23D021A604EF21802CEF20002106082
:10078000072008607047000041F20C01C4F2030129
:10079000086820F00100086041F20401C4F203017E
:1007A0000220086041F22801C4F203019F20086082
:1007B00041F23801C4F203010020086041F2240133
:1007C000C4F20301012008607047000041F20C01EF
:1007D000C4F20301086820F48070086041F2080147
:1007E000C4F203010220086041F22C01C4F20301AB
:1007F00043F2FF40086041F23C01C4F203010C20C7
:10080000086041F22401C4F203014FF480700860D3
:100810007047000080B54EF20461C4F20F01086811
:1008200040F002000860FFE74EF20460C4F20F00DF
:10083000006800F00200022801D0FFE7F4E741F26F
:100840000001C4F2030104200860FFF79DFFFFF7D9
:10085000BDFF80BD80B582B045F2FC31C4F200011D
:100860000191086840F02000086000F0DBF8019971
:10087000086820F02000086000F0D4F802B080BDC5
:100880004EF21861C4F20F01086840F001000860E0
:10089000FFE74EF21860C4F20F000068C00708B905
:1008A000FFE7F6E74EF20861C4F20F01086840F076
:1008B00001000860FFE74EF20860C4F20F00006814
:1008C000C00708B9FFE7F6E74CF23001C4F20001B7
:1008D000086820F0010008604CF22400C4F2000017
:1008E000112202604CF22803C4F2000317201860A2
:1008F0004CF22C03C4F200037020186040F2013067
:10090000086044F22041C4F20001086840F003008E
:10091000086044F22C51C4F20001086862F3070039
:10092000086044F22851C4F20001086820F0030076
:10093000086044F21C51C4F20001086840F0030052
:100940000860704780B586B005900020019005983A
:1009500020B9FFE7302000F04DF836E0FFE70599B9
:100960000020009039B1FFE7019900200B2938BF22
:1009700001200090FFE70098C007C8B1FFE7059885
:100980004CF6CD41CCF6CC41A0FB0132D20802EBB3
:100990008202A0EB420040F03000019B5A1C019201
:1009A00002AAD0540598A0FB0110C0080590D6E714
:1009B000FFE70198012808DBFFE70198411E01913C
:1009C00002A8405C00F016F8F3E706B080BD000016
:1009D00080B582B00190FFE70198007838B1FFE759
:1009E0000198411C0191007800F004F8F4E702B08E
:1009F00080BD000081B08DF80300FFE74CF21800C5
:100A0000C4F2000000688006002801D5FFE7F5E782
:100A10009DF803004CF20001C4F20001086001B02F
:100A20007047000041F20C01C4F20301086840F075
:100A300001000860FFE741F21C00C4F203000068F7
:100A4000C00708B9FFE7F6E741F22401C4F2030149
:100A5000012008607047000080B582B0002001903E
:100A6000FFF732FDFFF772FDFFF7D4FE00F018F834
:100A7000FFF706FFFFF770FEFFE740F26401C2F2E6
:100A8000000100200860FFF7E5FEFFE740F2640088
:100A9000C2F20000006808B9FFE7F7E7EDE70000E1
:100AA0004EF20861C4F20F01086840F002000860CD
:100AB000FFE74EF20860C4F20F00006800F0020089
:100AC000022801D0FFE7F4E745F20041C4F200013B
:100AD000086840F020000860086820F010000860F6
:100AE00045F22041C4F20001086820F0300008609F
:100AF00045F21C51C4F20001086840F03000086063
:100B000045F22851C4F20001086820F03000086066
:100B100045F22C51C4F20001086820F47F000860FF
:100B200045F20441C4F20001086820F0100008609A
:100B300045F20841C4F20001086840F01000086066
:100B400045F21041C4F20001086840F0100008604E
:100B500045F21C41C4F20001102008604EF2004131
:100B6000CEF200010868012262F34F3008604EF2B5
:100B70000011CEF200010220086070474FEA1153C5
:100B8000A3F58063D3F11E03A8BFD3F1200C08DBCB
:100B90004FF0004242EAC12252EA505232FA03F0C8
:100BA000704709420BD4102BC4BF0020704703F5D7
:100BB000787CBCF1FF3F05D04FF0FF3070474FF01D
:100BC0000000704770B500F0C3F800BF4992248060
:100BD00000207047F0E7B0FA80F310FA03F10AD072
:100BE000C3F11D0303F580634FEA03524FEA4150FE
:100BF00002EBD12170474FF00000704770B5DFF86D
:100C000048C11CEA111E1EBF1CEA13159EEA0C0FF8
:100C100095EA0C0F00F06F8081EA03044EEAD47E5F
:100C2000AE4421EA4C1123EA4C1341F4801143F401
:100C30008013AEF17F7EA1FB024CA0FB0365361949
:100C400055EB0C05A1FB034C4CF10003A0FB021C6F
:100C500016EB0C06654153F10003094218BF46F03C
:100C6000010613F4007F0BD14FEA03314FEA053040
:100C700041EA155140EA165034036FF003020AE0CE
:100C80004FEAC3214FEAC52041EA555140EA565088
:100C9000F4026FF0020202EB2E4201EB025585EAEC
:100CA000CE710AD05FEA440C18BF24F0004450F122
:100CB000000041F1000120EAD47040F2FE7C624560
:100CC00000D270BDA84214BF4FF080444FF04044A2
:100CD000002E08BF0024BEF1806FA8BFA1F1C04163
:100CE000BDE8704080F2828001F1C04101F0004116
:100CF0004FF0000070470CEA13159EEA0C0F18BF66
:100D000095EA0C0F06D081EA030E4FF000000EF0BA
:100D1000004170BD00F01CF88900013E00F007B8EA
:100D200000F009B84FEA430C5FEA5C5C08D081EA46
:100D3000030100F05BB84FEA410C5FEA5C5CF6D15E
:100D400002494FF0000070470000FF070000F87FE5
:100D50000EF1020E2EF0030E5EF8046B364205D43F
:100D6000012A43EB030515F5001F12D8012841EBBA
:100D7000010C1CF5001F0CD80ED14FEAD17C0CEBF6
:100D80004C0C0CF1020C15F5001F08BF4CEBD37C8A
:100D900004E04FF0080C01E04FEAD37C0CEB4C056B
:100DA00026FA05F606F00706B6F1040C06D20EEB9D
:100DB000860CBDE870404CF0010C6047DFE80CF099
:100DC000090B02024FF00041A1F500214FF0000095
:100DD00070BD19461046012851EB010418BFD4F527
:100DE000001484BF002001F0004170BD0808A0F588
:100DF00000114FEA31017047636D0D0A00446973B9
:100E000074616E63653A2000180E00000000002037
:080E100068040000EC02000080
:040000050000026D88
:00000001FF
